{
  "_format": "hh-sol-artifact-1",
  "contractName": "MarketToken",
  "sourceName": "contracts/MarketToken.sol",
  "abi": [
    {
      "inputs": [
        {
          "internalType": "address",
          "name": "_stakingToken",
          "type": "address"
        },
        {
          "internalType": "address",
          "name": "_rewardsToken",
          "type": "address"
        }
      ],
      "stateMutability": "nonpayable",
      "type": "constructor"
    },
    {
      "anonymous": false,
      "inputs": [
        {
          "indexed": true,
          "internalType": "address",
          "name": "owner",
          "type": "address"
        },
        {
          "indexed": true,
          "internalType": "address",
          "name": "spender",
          "type": "address"
        },
        {
          "indexed": false,
          "internalType": "uint256",
          "name": "value",
          "type": "uint256"
        }
      ],
      "name": "Approval",
      "type": "event"
    },
    {
      "anonymous": false,
      "inputs": [
        {
          "indexed": true,
          "internalType": "address",
          "name": "user",
          "type": "address"
        },
        {
          "indexed": false,
          "internalType": "uint256",
          "name": "amount",
          "type": "uint256"
        }
      ],
      "name": "RewardDone",
      "type": "event"
    },
    {
      "anonymous": false,
      "inputs": [
        {
          "indexed": true,
          "internalType": "address",
          "name": "user",
          "type": "address"
        },
        {
          "indexed": false,
          "internalType": "uint256",
          "name": "amount",
          "type": "uint256"
        }
      ],
      "name": "Staked",
      "type": "event"
    },
    {
      "anonymous": false,
      "inputs": [
        {
          "indexed": true,
          "internalType": "address",
          "name": "from",
          "type": "address"
        },
        {
          "indexed": true,
          "internalType": "address",
          "name": "to",
          "type": "address"
        },
        {
          "indexed": false,
          "internalType": "uint256",
          "name": "value",
          "type": "uint256"
        }
      ],
      "name": "Transfer",
      "type": "event"
    },
    {
      "anonymous": false,
      "inputs": [
        {
          "indexed": true,
          "internalType": "address",
          "name": "user",
          "type": "address"
        },
        {
          "indexed": false,
          "internalType": "uint256",
          "name": "amount",
          "type": "uint256"
        }
      ],
      "name": "Withdrawn",
      "type": "event"
    },
    {
      "inputs": [
        {
          "internalType": "address",
          "name": "owner",
          "type": "address"
        },
        {
          "internalType": "address",
          "name": "spender",
          "type": "address"
        }
      ],
      "name": "allowance",
      "outputs": [
        {
          "internalType": "uint256",
          "name": "",
          "type": "uint256"
        }
      ],
      "stateMutability": "view",
      "type": "function"
    },
    {
      "inputs": [
        {
          "internalType": "address",
          "name": "spender",
          "type": "address"
        },
        {
          "internalType": "uint256",
          "name": "amount",
          "type": "uint256"
        }
      ],
      "name": "approve",
      "outputs": [
        {
          "internalType": "bool",
          "name": "",
          "type": "bool"
        }
      ],
      "stateMutability": "nonpayable",
      "type": "function"
    },
    {
      "inputs": [],
      "name": "balance",
      "outputs": [
        {
          "internalType": "uint256",
          "name": "",
          "type": "uint256"
        }
      ],
      "stateMutability": "view",
      "type": "function"
    },
    {
      "inputs": [
        {
          "internalType": "address",
          "name": "account",
          "type": "address"
        }
      ],
      "name": "balanceOf",
      "outputs": [
        {
          "internalType": "uint256",
          "name": "",
          "type": "uint256"
        }
      ],
      "stateMutability": "view",
      "type": "function"
    },
    {
      "inputs": [],
      "name": "decimals",
      "outputs": [
        {
          "internalType": "uint8",
          "name": "",
          "type": "uint8"
        }
      ],
      "stateMutability": "view",
      "type": "function"
    },
    {
      "inputs": [
        {
          "internalType": "address",
          "name": "spender",
          "type": "address"
        },
        {
          "internalType": "uint256",
          "name": "subtractedValue",
          "type": "uint256"
        }
      ],
      "name": "decreaseAllowance",
      "outputs": [
        {
          "internalType": "bool",
          "name": "",
          "type": "bool"
        }
      ],
      "stateMutability": "nonpayable",
      "type": "function"
    },
    {
      "inputs": [
        {
          "internalType": "uint256",
          "name": "_amount",
          "type": "uint256"
        }
      ],
      "name": "exit",
      "outputs": [],
      "stateMutability": "nonpayable",
      "type": "function"
    },
    {
      "inputs": [
        {
          "internalType": "address",
          "name": "spender",
          "type": "address"
        },
        {
          "internalType": "uint256",
          "name": "addedValue",
          "type": "uint256"
        }
      ],
      "name": "increaseAllowance",
      "outputs": [
        {
          "internalType": "bool",
          "name": "",
          "type": "bool"
        }
      ],
      "stateMutability": "nonpayable",
      "type": "function"
    },
    {
      "inputs": [],
      "name": "name",
      "outputs": [
        {
          "internalType": "string",
          "name": "",
          "type": "string"
        }
      ],
      "stateMutability": "view",
      "type": "function"
    },
    {
      "inputs": [],
      "name": "rewardEarned",
      "outputs": [
        {
          "internalType": "uint256",
          "name": "",
          "type": "uint256"
        }
      ],
      "stateMutability": "view",
      "type": "function"
    },
    {
      "inputs": [],
      "name": "rewardsToken",
      "outputs": [
        {
          "internalType": "contract IERC20",
          "name": "",
          "type": "address"
        }
      ],
      "stateMutability": "view",
      "type": "function"
    },
    {
      "inputs": [
        {
          "internalType": "uint256",
          "name": "amount",
          "type": "uint256"
        }
      ],
      "name": "stake",
      "outputs": [],
      "stateMutability": "payable",
      "type": "function"
    },
    {
      "inputs": [],
      "name": "stakingToken",
      "outputs": [
        {
          "internalType": "contract IERC20",
          "name": "",
          "type": "address"
        }
      ],
      "stateMutability": "view",
      "type": "function"
    },
    {
      "inputs": [],
      "name": "symbol",
      "outputs": [
        {
          "internalType": "string",
          "name": "",
          "type": "string"
        }
      ],
      "stateMutability": "view",
      "type": "function"
    },
    {
      "inputs": [],
      "name": "totalSupply",
      "outputs": [
        {
          "internalType": "uint256",
          "name": "",
          "type": "uint256"
        }
      ],
      "stateMutability": "view",
      "type": "function"
    },
    {
      "inputs": [
        {
          "internalType": "address",
          "name": "recipient",
          "type": "address"
        },
        {
          "internalType": "uint256",
          "name": "amount",
          "type": "uint256"
        }
      ],
      "name": "transfer",
      "outputs": [
        {
          "internalType": "bool",
          "name": "",
          "type": "bool"
        }
      ],
      "stateMutability": "nonpayable",
      "type": "function"
    },
    {
      "inputs": [
        {
          "internalType": "address",
          "name": "sender",
          "type": "address"
        },
        {
          "internalType": "address",
          "name": "recipient",
          "type": "address"
        },
        {
          "internalType": "uint256",
          "name": "amount",
          "type": "uint256"
        }
      ],
      "name": "transferFrom",
      "outputs": [
        {
          "internalType": "bool",
          "name": "",
          "type": "bool"
        }
      ],
      "stateMutability": "nonpayable",
      "type": "function"
    },
    {
      "inputs": [
        {
          "internalType": "uint256",
          "name": "amount",
          "type": "uint256"
        }
      ],
      "name": "withdraw",
      "outputs": [],
      "stateMutability": "nonpayable",
      "type": "function"
    }
  ],
  "bytecode": "0x60806040523480156200001157600080fd5b50604051620028ef380380620028ef833981810160405281019062000037919062000230565b6040518060400160405280600981526020017f4661726d546f6b656e00000000000000000000000000000000000000000000008152506040518060400160405280600381526020017f46524d00000000000000000000000000000000000000000000000000000000008152508160039080519060200190620000bb92919062000169565b508060049080519060200190620000d492919062000169565b505050600160058190555081600760006101000a81548173ffffffffffffffffffffffffffffffffffffffff021916908373ffffffffffffffffffffffffffffffffffffffff16021790555080600660006101000a81548173ffffffffffffffffffffffffffffffffffffffff021916908373ffffffffffffffffffffffffffffffffffffffff16021790555050506200032f565b8280546200017790620002ab565b90600052602060002090601f0160209004810192826200019b5760008555620001e7565b82601f10620001b657805160ff1916838001178555620001e7565b82800160010185558215620001e7579182015b82811115620001e6578251825591602001919060010190620001c9565b5b509050620001f69190620001fa565b5090565b5b8082111562000215576000816000905550600101620001fb565b5090565b6000815190506200022a8162000315565b92915050565b600080604083850312156200024a576200024962000310565b5b60006200025a8582860162000219565b92505060206200026d8582860162000219565b9150509250929050565b600062000284826200028b565b9050919050565b600073ffffffffffffffffffffffffffffffffffffffff82169050919050565b60006002820490506001821680620002c457607f821691505b60208210811415620002db57620002da620002e1565b5b50919050565b7f4e487b7100000000000000000000000000000000000000000000000000000000600052602260045260246000fd5b600080fd5b620003208162000277565b81146200032c57600080fd5b50565b6125b0806200033f6000396000f3fe6080604052600436106101095760003560e01c806372f702f311610095578063a694fc3a11610064578063a694fc3a14610393578063a9059cbb146103af578063b69ef8a8146103ec578063d1af0c7d14610417578063dd62ed3e1461044257610109565b806372f702f3146102d75780637f8661a11461030257806395d89b411461032b578063a457c2d71461035657610109565b80632deede5a116100dc5780632deede5a146101de5780632e1a7d4d14610209578063313ce56714610232578063395093511461025d57806370a082311461029a57610109565b806306fdde031461010e578063095ea7b31461013957806318160ddd1461017657806323b872dd146101a1575b600080fd5b34801561011a57600080fd5b5061012361047f565b6040516101309190611db2565b60405180910390f35b34801561014557600080fd5b50610160600480360381019061015b91906119a7565b610511565b60405161016d9190611d7c565b60405180910390f35b34801561018257600080fd5b5061018b61052f565b6040516101989190611f74565b60405180910390f35b3480156101ad57600080fd5b506101c860048036038101906101c39190611954565b610539565b6040516101d59190611d7c565b60405180910390f35b3480156101ea57600080fd5b506101f3610631565b6040516102009190611f74565b60405180910390f35b34801561021557600080fd5b50610230600480360381019061022b9190611a14565b6106e3565b005b34801561023e57600080fd5b506102476108ca565b6040516102549190611f8f565b60405180910390f35b34801561026957600080fd5b50610284600480360381019061027f91906119a7565b6108d3565b6040516102919190611d7c565b60405180910390f35b3480156102a657600080fd5b506102c160048036038101906102bc91906118e7565b61097f565b6040516102ce9190611f74565b60405180910390f35b3480156102e357600080fd5b506102ec6109c8565b6040516102f99190611d97565b60405180910390f35b34801561030e57600080fd5b5061032960048036038101906103249190611a14565b6109ee565b005b34801561033757600080fd5b50610340610a03565b60405161034d9190611db2565b60405180910390f35b34801561036257600080fd5b5061037d600480360381019061037891906119a7565b610a95565b60405161038a9190611d7c565b60405180910390f35b6103ad60048036038101906103a89190611a14565b610b80565b005b3480156103bb57600080fd5b506103d660048036038101906103d191906119a7565b610e10565b6040516103e39190611d7c565b60405180910390f35b3480156103f857600080fd5b50610401610e2e565b60405161040e9190611f74565b60405180910390f35b34801561042357600080fd5b5061042c610ee0565b6040516104399190611d97565b60405180910390f35b34801561044e57600080fd5b5061046960048036038101906104649190611914565b610f06565b6040516104769190611f74565b60405180910390f35b60606003805461048e90612124565b80601f01602080910402602001604051908101604052809291908181526020018280546104ba90612124565b80156105075780601f106104dc57610100808354040283529160200191610507565b820191906000526020600020905b8154815290600101906020018083116104ea57829003601f168201915b5050505050905090565b600061052561051e610f8d565b8484610f95565b6001905092915050565b6000600854905090565b6000610546848484611160565b6000600160008673ffffffffffffffffffffffffffffffffffffffff1673ffffffffffffffffffffffffffffffffffffffff1681526020019081526020016000206000610591610f8d565b73ffffffffffffffffffffffffffffffffffffffff1673ffffffffffffffffffffffffffffffffffffffff16815260200190815260200160002054905082811015610611576040517f08c379a000000000000000000000000000000000000000000000000000000000815260040161060890611e94565b60405180910390fd5b6106258561061d610f8d565b858403610f95565b60019150509392505050565b6000600660009054906101000a900473ffffffffffffffffffffffffffffffffffffffff1673ffffffffffffffffffffffffffffffffffffffff166370a08231336040518263ffffffff1660e01b815260040161068e9190611d01565b60206040518083038186803b1580156106a657600080fd5b505afa1580156106ba573d6000803e3d6000fd5b505050506040513d601f19601f820116820180604052508101906106de9190611a41565b905090565b60026005541415610729576040517f08c379a000000000000000000000000000000000000000000000000000000000815260040161072090611f34565b60405180910390fd5b600260058190555060008111610774576040517f08c379a000000000000000000000000000000000000000000000000000000000815260040161076b90611e74565b60405180910390fd5b610789816008546113e190919063ffffffff16565b6008819055506107e181600960003373ffffffffffffffffffffffffffffffffffffffff1673ffffffffffffffffffffffffffffffffffffffff168152602001908152602001600020546113e190919063ffffffff16565b600960003373ffffffffffffffffffffffffffffffffffffffff1673ffffffffffffffffffffffffffffffffffffffff168152602001908152602001600020819055506108713382600760009054906101000a900473ffffffffffffffffffffffffffffffffffffffff1673ffffffffffffffffffffffffffffffffffffffff166113f79092919063ffffffff16565b3373ffffffffffffffffffffffffffffffffffffffff167f7084f5476618d8e60b11ef0d7d3f06914655adb8793e28ff7f018d4c76d505d5826040516108b79190611f74565b60405180910390a2600160058190555050565b60006012905090565b60006109756108e0610f8d565b8484600160006108ee610f8d565b73ffffffffffffffffffffffffffffffffffffffff1673ffffffffffffffffffffffffffffffffffffffff16815260200190815260200160002060008873ffffffffffffffffffffffffffffffffffffffff1673ffffffffffffffffffffffffffffffffffffffff168152602001908152602001600020546109709190611fdc565b610f95565b6001905092915050565b6000600960008373ffffffffffffffffffffffffffffffffffffffff1673ffffffffffffffffffffffffffffffffffffffff168152602001908152602001600020549050919050565b600760009054906101000a900473ffffffffffffffffffffffffffffffffffffffff1681565b6109f7816106e3565b610a008161147d565b50565b606060048054610a1290612124565b80601f0160208091040260200160405190810160405280929190818152602001828054610a3e90612124565b8015610a8b5780601f10610a6057610100808354040283529160200191610a8b565b820191906000526020600020905b815481529060010190602001808311610a6e57829003601f168201915b5050505050905090565b60008060016000610aa4610f8d565b73ffffffffffffffffffffffffffffffffffffffff1673ffffffffffffffffffffffffffffffffffffffff16815260200190815260200160002060008573ffffffffffffffffffffffffffffffffffffffff1673ffffffffffffffffffffffffffffffffffffffff16815260200190815260200160002054905082811015610b61576040517f08c379a0000000000000000000000000000000000000000000000000000000008152600401610b5890611f54565b60405180910390fd5b610b75610b6c610f8d565b85858403610f95565b600191505092915050565b60026005541415610bc6576040517f08c379a0000000000000000000000000000000000000000000000000000000008152600401610bbd90611f34565b60405180910390fd5b600260058190555060008111610c11576040517f08c379a0000000000000000000000000000000000000000000000000000000008152600401610c0890611e14565b60405180910390fd5b610c268160085461160690919063ffffffff16565b600881905550610c7e81600960003373ffffffffffffffffffffffffffffffffffffffff1673ffffffffffffffffffffffffffffffffffffffff1681526020019081526020016000205461160690919063ffffffff16565b600960003373ffffffffffffffffffffffffffffffffffffffff1673ffffffffffffffffffffffffffffffffffffffff16815260200190815260200160002081905550600760009054906101000a900473ffffffffffffffffffffffffffffffffffffffff1673ffffffffffffffffffffffffffffffffffffffff166323b872dd3330846040518463ffffffff1660e01b8152600401610d2093929190611d1c565b602060405180830381600087803b158015610d3a57600080fd5b505af1158015610d4e573d6000803e3d6000fd5b505050506040513d601f19601f82011682018060405250810190610d7291906119e7565b5080600a60003373ffffffffffffffffffffffffffffffffffffffff1673ffffffffffffffffffffffffffffffffffffffff168152602001908152602001600020819055503373ffffffffffffffffffffffffffffffffffffffff167f9e71bc8eea02a63969f509818f2dafb9254532904319f9dbda79b67bd34a5f3d82604051610dfd9190611f74565b60405180910390a2600160058190555050565b6000610e24610e1d610f8d565b8484611160565b6001905092915050565b6000600760009054906101000a900473ffffffffffffffffffffffffffffffffffffffff1673ffffffffffffffffffffffffffffffffffffffff166370a08231306040518263ffffffff1660e01b8152600401610e8b9190611d01565b60206040518083038186803b158015610ea357600080fd5b505afa158015610eb7573d6000803e3d6000fd5b505050506040513d601f19601f82011682018060405250810190610edb9190611a41565b905090565b600660009054906101000a900473ffffffffffffffffffffffffffffffffffffffff1681565b6000600160008473ffffffffffffffffffffffffffffffffffffffff1673ffffffffffffffffffffffffffffffffffffffff16815260200190815260200160002060008373ffffffffffffffffffffffffffffffffffffffff1673ffffffffffffffffffffffffffffffffffffffff16815260200190815260200160002054905092915050565b600033905090565b600073ffffffffffffffffffffffffffffffffffffffff168373ffffffffffffffffffffffffffffffffffffffff161415611005576040517f08c379a0000000000000000000000000000000000000000000000000000000008152600401610ffc90611ed4565b60405180910390fd5b600073ffffffffffffffffffffffffffffffffffffffff168273ffffffffffffffffffffffffffffffffffffffff161415611075576040517f08c379a000000000000000000000000000000000000000000000000000000000815260040161106c90611df4565b60405180910390fd5b80600160008573ffffffffffffffffffffffffffffffffffffffff1673ffffffffffffffffffffffffffffffffffffffff16815260200190815260200160002060008473ffffffffffffffffffffffffffffffffffffffff1673ffffffffffffffffffffffffffffffffffffffff168152602001908152602001600020819055508173ffffffffffffffffffffffffffffffffffffffff168373ffffffffffffffffffffffffffffffffffffffff167f8c5be1e5ebec7d5bd14f71427d1e84f3dd0314c0f7b2291e5b200ac8c7c3b925836040516111539190611f74565b60405180910390a3505050565b600073ffffffffffffffffffffffffffffffffffffffff168373ffffffffffffffffffffffffffffffffffffffff1614156111d0576040517f08c379a00000000000000000000000000000000000000000000000000000000081526004016111c790611eb4565b60405180910390fd5b600073ffffffffffffffffffffffffffffffffffffffff168273ffffffffffffffffffffffffffffffffffffffff161415611240576040517f08c379a000000000000000000000000000000000000000000000000000000000815260040161123790611dd4565b60405180910390fd5b61124b83838361161c565b60008060008573ffffffffffffffffffffffffffffffffffffffff1673ffffffffffffffffffffffffffffffffffffffff168152602001908152602001600020549050818110156112d1576040517f08c379a00000000000000000000000000000000000000000000000000000000081526004016112c890611e34565b60405180910390fd5b8181036000808673ffffffffffffffffffffffffffffffffffffffff1673ffffffffffffffffffffffffffffffffffffffff16815260200190815260200160002081905550816000808573ffffffffffffffffffffffffffffffffffffffff1673ffffffffffffffffffffffffffffffffffffffff16815260200190815260200160002060008282546113649190611fdc565b925050819055508273ffffffffffffffffffffffffffffffffffffffff168473ffffffffffffffffffffffffffffffffffffffff167fddf252ad1be2c89b69c2b068fc378daa952ba7f163c4a11628f55a4df523b3ef846040516113c89190611f74565b60405180910390a36113db848484611621565b50505050565b600081836113ef9190612032565b905092915050565b6114788363a9059cbb60e01b8484604051602401611416929190611d53565b604051602081830303815290604052907bffffffffffffffffffffffffffffffffffffffffffffffffffffffff19166020820180517bffffffffffffffffffffffffffffffffffffffffffffffffffffffff8381831617835250505050611626565b505050565b600260055414156114c3576040517f08c379a00000000000000000000000000000000000000000000000000000000081526004016114ba90611f34565b60405180910390fd5b600260058190555061151d81600a60003373ffffffffffffffffffffffffffffffffffffffff1673ffffffffffffffffffffffffffffffffffffffff168152602001908152602001600020546113e190919063ffffffff16565b600a60003373ffffffffffffffffffffffffffffffffffffffff1673ffffffffffffffffffffffffffffffffffffffff168152602001908152602001600020819055506115ad3382600660009054906101000a900473ffffffffffffffffffffffffffffffffffffffff1673ffffffffffffffffffffffffffffffffffffffff166113f79092919063ffffffff16565b3373ffffffffffffffffffffffffffffffffffffffff167f174db982a887df051ad345634d0cd78828fac7dca21800bcbedf65e6901aa2e6826040516115f39190611f74565b60405180910390a2600160058190555050565b600081836116149190611fdc565b905092915050565b505050565b505050565b6000611688826040518060400160405280602081526020017f5361666545524332303a206c6f772d6c6576656c2063616c6c206661696c65648152508573ffffffffffffffffffffffffffffffffffffffff166116ed9092919063ffffffff16565b90506000815111156116e857808060200190518101906116a891906119e7565b6116e7576040517f08c379a00000000000000000000000000000000000000000000000000000000081526004016116de90611f14565b60405180910390fd5b5b505050565b60606116fc8484600085611705565b90509392505050565b60608247101561174a576040517f08c379a000000000000000000000000000000000000000000000000000000000815260040161174190611e54565b60405180910390fd5b61175385611819565b611792576040517f08c379a000000000000000000000000000000000000000000000000000000000815260040161178990611ef4565b60405180910390fd5b6000808673ffffffffffffffffffffffffffffffffffffffff1685876040516117bb9190611cea565b60006040518083038185875af1925050503d80600081146117f8576040519150601f19603f3d011682016040523d82523d6000602084013e6117fd565b606091505b509150915061180d82828661182c565b92505050949350505050565b600080823b905060008111915050919050565b6060831561183c5782905061188c565b60008351111561184f5782518084602001fd5b816040517f08c379a00000000000000000000000000000000000000000000000000000000081526004016118839190611db2565b60405180910390fd5b9392505050565b6000813590506118a281612535565b92915050565b6000815190506118b78161254c565b92915050565b6000813590506118cc81612563565b92915050565b6000815190506118e181612563565b92915050565b6000602082840312156118fd576118fc6121b4565b5b600061190b84828501611893565b91505092915050565b6000806040838503121561192b5761192a6121b4565b5b600061193985828601611893565b925050602061194a85828601611893565b9150509250929050565b60008060006060848603121561196d5761196c6121b4565b5b600061197b86828701611893565b935050602061198c86828701611893565b925050604061199d868287016118bd565b9150509250925092565b600080604083850312156119be576119bd6121b4565b5b60006119cc85828601611893565b92505060206119dd858286016118bd565b9150509250929050565b6000602082840312156119fd576119fc6121b4565b5b6000611a0b848285016118a8565b91505092915050565b600060208284031215611a2a57611a296121b4565b5b6000611a38848285016118bd565b91505092915050565b600060208284031215611a5757611a566121b4565b5b6000611a65848285016118d2565b91505092915050565b611a7781612066565b82525050565b611a8681612078565b82525050565b6000611a9782611faa565b611aa18185611fc0565b9350611ab18185602086016120f1565b80840191505092915050565b611ac6816120bb565b82525050565b6000611ad782611fb5565b611ae18185611fcb565b9350611af18185602086016120f1565b611afa816121b9565b840191505092915050565b6000611b12602383611fcb565b9150611b1d826121ca565b604082019050919050565b6000611b35602283611fcb565b9150611b4082612219565b604082019050919050565b6000611b58600e83611fcb565b9150611b6382612268565b602082019050919050565b6000611b7b602683611fcb565b9150611b8682612291565b604082019050919050565b6000611b9e602683611fcb565b9150611ba9826122e0565b604082019050919050565b6000611bc1601183611fcb565b9150611bcc8261232f565b602082019050919050565b6000611be4602883611fcb565b9150611bef82612358565b604082019050919050565b6000611c07602583611fcb565b9150611c12826123a7565b604082019050919050565b6000611c2a602483611fcb565b9150611c35826123f6565b604082019050919050565b6000611c4d601d83611fcb565b9150611c5882612445565b602082019050919050565b6000611c70602a83611fcb565b9150611c7b8261246e565b604082019050919050565b6000611c93601f83611fcb565b9150611c9e826124bd565b602082019050919050565b6000611cb6602583611fcb565b9150611cc1826124e6565b604082019050919050565b611cd5816120a4565b82525050565b611ce4816120ae565b82525050565b6000611cf68284611a8c565b915081905092915050565b6000602082019050611d166000830184611a6e565b92915050565b6000606082019050611d316000830186611a6e565b611d3e6020830185611a6e565b611d4b6040830184611ccc565b949350505050565b6000604082019050611d686000830185611a6e565b611d756020830184611ccc565b9392505050565b6000602082019050611d916000830184611a7d565b92915050565b6000602082019050611dac6000830184611abd565b92915050565b60006020820190508181036000830152611dcc8184611acc565b905092915050565b60006020820190508181036000830152611ded81611b05565b9050919050565b60006020820190508181036000830152611e0d81611b28565b9050919050565b60006020820190508181036000830152611e2d81611b4b565b9050919050565b60006020820190508181036000830152611e4d81611b6e565b9050919050565b60006020820190508181036000830152611e6d81611b91565b9050919050565b60006020820190508181036000830152611e8d81611bb4565b9050919050565b60006020820190508181036000830152611ead81611bd7565b9050919050565b60006020820190508181036000830152611ecd81611bfa565b9050919050565b60006020820190508181036000830152611eed81611c1d565b9050919050565b60006020820190508181036000830152611f0d81611c40565b9050919050565b60006020820190508181036000830152611f2d81611c63565b9050919050565b60006020820190508181036000830152611f4d81611c86565b9050919050565b60006020820190508181036000830152611f6d81611ca9565b9050919050565b6000602082019050611f896000830184611ccc565b92915050565b6000602082019050611fa46000830184611cdb565b92915050565b600081519050919050565b600081519050919050565b600081905092915050565b600082825260208201905092915050565b6000611fe7826120a4565b9150611ff2836120a4565b9250827fffffffffffffffffffffffffffffffffffffffffffffffffffffffffffffffff0382111561202757612026612156565b5b828201905092915050565b600061203d826120a4565b9150612048836120a4565b92508282101561205b5761205a612156565b5b828203905092915050565b600061207182612084565b9050919050565b60008115159050919050565b600073ffffffffffffffffffffffffffffffffffffffff82169050919050565b6000819050919050565b600060ff82169050919050565b60006120c6826120cd565b9050919050565b60006120d8826120df565b9050919050565b60006120ea82612084565b9050919050565b60005b8381101561210f5780820151818401526020810190506120f4565b8381111561211e576000848401525b50505050565b6000600282049050600182168061213c57607f821691505b602082108114156121505761214f612185565b5b50919050565b7f4e487b7100000000000000000000000000000000000000000000000000000000600052601160045260246000fd5b7f4e487b7100000000000000000000000000000000000000000000000000000000600052602260045260246000fd5b600080fd5b6000601f19601f8301169050919050565b7f45524332303a207472616e7366657220746f20746865207a65726f206164647260008201527f6573730000000000000000000000000000000000000000000000000000000000602082015250565b7f45524332303a20617070726f766520746f20746865207a65726f20616464726560008201527f7373000000000000000000000000000000000000000000000000000000000000602082015250565b7f43616e6e6f74207374616b652030000000000000000000000000000000000000600082015250565b7f45524332303a207472616e7366657220616d6f756e742065786365656473206260008201527f616c616e63650000000000000000000000000000000000000000000000000000602082015250565b7f416464726573733a20696e73756666696369656e742062616c616e636520666f60008201527f722063616c6c0000000000000000000000000000000000000000000000000000602082015250565b7f43616e6e6f742077697468647261772030000000000000000000000000000000600082015250565b7f45524332303a207472616e7366657220616d6f756e742065786365656473206160008201527f6c6c6f77616e6365000000000000000000000000000000000000000000000000602082015250565b7f45524332303a207472616e736665722066726f6d20746865207a65726f20616460008201527f6472657373000000000000000000000000000000000000000000000000000000602082015250565b7f45524332303a20617070726f76652066726f6d20746865207a65726f2061646460008201527f7265737300000000000000000000000000000000000000000000000000000000602082015250565b7f416464726573733a2063616c6c20746f206e6f6e2d636f6e7472616374000000600082015250565b7f5361666545524332303a204552433230206f7065726174696f6e20646964206e60008201527f6f74207375636365656400000000000000000000000000000000000000000000602082015250565b7f5265656e7472616e637947756172643a207265656e7472616e742063616c6c00600082015250565b7f45524332303a2064656372656173656420616c6c6f77616e63652062656c6f7760008201527f207a65726f000000000000000000000000000000000000000000000000000000602082015250565b61253e81612066565b811461254957600080fd5b50565b61255581612078565b811461256057600080fd5b50565b61256c816120a4565b811461257757600080fd5b5056fea264697066735822122008a6f1c7378bb9d4d00a5b706a35b906846cb4f5d7f267eb0804f02b6e69784f64736f6c63430008070033",
  "linkReferences": {},
  "deployedLinkReferences": {}
}